:04000000FEEFFFF020
:101000000000BEEC08F082B808EF08F00BEF08F023
:10101000010E0CEF08F0000EFF0A0D6E0D3A825023
:101020000D18EF0B0D18826E82BA19EF08F01CEF45
:1010300008F0010E1DEF08F0000EFF0A0D6E0D3ACC
:101040000D4682500D18DF0B0D18826E82BC2BEFFF
:1010500008F02EEF08F0010E2FEF08F0000EFF0A47
:101060000D6E0D3A0D460D4682500D18BF0B0D1832
:10107000826E82BE3EEF08F041EF08F0010E42EFB3
:1010800008F0000EFF0A0D6E0D320D3282500D1861
:101090007F0B0D18826E290E0E6E960E0D6E7F0E52
:1010A000E82EFED70D2EFCD70E2EFAD7000003EF48
:1010B00008F0FEEFFFF0826A836A846A856A866AB6
:1010C0000F010A6B126B1A6B1F6B276B0F0E876E6B
:1010D000886889688A68070E8B6E0F0E0C6F14691A
:1010E0001C692169070E296F0B6B136B1B6B206B3F
:1010F000286B0969116919691E69070E266F08694D
:10110000106918691D690F0E256F076B066B056B5B
:101110000F6B0E6B0D6B176B166B156B246B236BC4
:10112000226B1200F29A0E01C591F280000E0A6E37
:10113000000E0B6E000E0C6ED3EC08F00E01C59382
:10114000F282000E0A6E000E0B6E000E0C6ECCECDE
:1011500008F00E01C595F284000E0A6E000E0B6EAB
:10116000000E0C6EC5EC08F01200600E0E01D36F7D
:10117000D56BD76B080ED96FD86B1200B5EC08F0A1
:101180005BEC08F092EC08F012000AC001F00BC012
:1011900002F00CC003F012000AC004F00BC005F00E
:1011A0000CC006F012000AC007F00BC008F00CC01B
:0A11B00009F01200000101EF08F041
:020000040001F9
:04FFFC00DAEF08F040
:020000040030CA
:0C0000008FFFFFFF9FFFFFFFFFFFFFFFD0
:00000001FF
